{
	"NahidTokenSale.sol": {
		"NahidTokenSale": {
			"abi": [
				{
					"inputs": [],
					"stateMutability": "nonpayable",
					"type": "constructor"
				},
				{
					"anonymous": false,
					"inputs": [
						{
							"indexed": false,
							"internalType": "address",
							"name": "buyer",
							"type": "address"
						},
						{
							"indexed": false,
							"internalType": "uint256",
							"name": "ethAmount",
							"type": "uint256"
						},
						{
							"indexed": false,
							"internalType": "uint256",
							"name": "tokenAmount",
							"type": "uint256"
						}
					],
					"name": "TokenPurchased",
					"type": "event"
				},
				{
					"inputs": [
						{
							"internalType": "address",
							"name": "",
							"type": "address"
						}
					],
					"name": "balances",
					"outputs": [
						{
							"internalType": "uint256",
							"name": "",
							"type": "uint256"
						}
					],
					"stateMutability": "view",
					"type": "function"
				},
				{
					"inputs": [],
					"name": "buyToken",
					"outputs": [],
					"stateMutability": "payable",
					"type": "function"
				},
				{
					"inputs": [],
					"name": "owner",
					"outputs": [
						{
							"internalType": "address",
							"name": "",
							"type": "address"
						}
					],
					"stateMutability": "view",
					"type": "function"
				},
				{
					"inputs": [],
					"name": "tokenPrice",
					"outputs": [
						{
							"internalType": "uint256",
							"name": "",
							"type": "uint256"
						}
					],
					"stateMutability": "view",
					"type": "function"
				},
				{
					"inputs": [],
					"name": "totalEthRaised",
					"outputs": [
						{
							"internalType": "uint256",
							"name": "",
							"type": "uint256"
						}
					],
					"stateMutability": "view",
					"type": "function"
				},
				{
					"inputs": [],
					"name": "totalTransactions",
					"outputs": [
						{
							"internalType": "uint256",
							"name": "",
							"type": "uint256"
						}
					],
					"stateMutability": "view",
					"type": "function"
				},
				{
					"inputs": [],
					"name": "withdraw",
					"outputs": [],
					"stateMutability": "nonpayable",
					"type": "function"
				}
			],
			"devdoc": {
				"kind": "dev",
				"methods": {},
				"version": 1
			},
			"evm": {
				"assembly": "    /* \"NahidTokenSale.sol\":60:1019  contract NahidTokenSale{... */\n  mstore(0x40, 0x80)\n    /* \"NahidTokenSale.sol\":118:128  0.01 ether */\n  0x2386f26fc10000\n    /* \"NahidTokenSale.sol\":90:128  uint256 public tokenPrice = 0.01 ether */\n  0x00\n  sstore\n    /* \"NahidTokenSale.sol\":371:423  constructor (){... */\n  callvalue\n  dup1\n  iszero\n  tag_1\n  jumpi\n  revert(0x00, 0x00)\ntag_1:\n  pop\n    /* \"NahidTokenSale.sol\":405:415  msg.sender */\n  caller\n    /* \"NahidTokenSale.sol\":397:402  owner */\n  0x03\n  0x00\n    /* \"NahidTokenSale.sol\":397:415  owner = msg.sender */\n  0x0100\n  exp\n  dup2\n  sload\n  dup2\n  0xffffffffffffffffffffffffffffffffffffffff\n  mul\n  not\n  and\n  swap1\n  dup4\n  0xffffffffffffffffffffffffffffffffffffffff\n  and\n  mul\n  or\n  swap1\n  sstore\n  pop\n    /* \"NahidTokenSale.sol\":60:1019  contract NahidTokenSale{... */\n  dataSize(sub_0)\n  dup1\n  dataOffset(sub_0)\n  0x00\n  codecopy\n  0x00\n  return\nstop\n\nsub_0: assembly {\n        /* \"NahidTokenSale.sol\":60:1019  contract NahidTokenSale{... */\n      mstore(0x40, 0x80)\n      jumpi(tag_1, lt(calldatasize, 0x04))\n      shr(0xe0, calldataload(0x00))\n      dup1\n      0x8da5cb5b\n      gt\n      tag_9\n      jumpi\n      dup1\n      0x8da5cb5b\n      eq\n      tag_5\n      jumpi\n      dup1\n      0xa4821719\n      eq\n      tag_6\n      jumpi\n      dup1\n      0xb9a60038\n      eq\n      tag_7\n      jumpi\n      dup1\n      0xc9e904be\n      eq\n      tag_8\n      jumpi\n      jump(tag_1)\n    tag_9:\n      dup1\n      0x27e235e3\n      eq\n      tag_2\n      jumpi\n      dup1\n      0x3ccfd60b\n      eq\n      tag_3\n      jumpi\n      dup1\n      0x7ff9b596\n      eq\n      tag_4\n      jumpi\n    tag_1:\n      revert(0x00, 0x00)\n        /* \"NahidTokenSale.sol\":237:280  mapping(address => uint256) public balances */\n    tag_2:\n      callvalue\n      dup1\n      iszero\n      tag_10\n      jumpi\n      revert(0x00, 0x00)\n    tag_10:\n      pop\n      tag_11\n      0x04\n      dup1\n      calldatasize\n      sub\n      dup2\n      add\n      swap1\n      tag_12\n      swap2\n      swap1\n      tag_13\n      jump\t// in\n    tag_12:\n      tag_14\n      jump\t// in\n    tag_11:\n      mload(0x40)\n      tag_15\n      swap2\n      swap1\n      tag_16\n      jump\t// in\n    tag_15:\n      mload(0x40)\n      dup1\n      swap2\n      sub\n      swap1\n      return\n        /* \"NahidTokenSale.sol\":909:1015  function withdraw() public onlyOwner{... */\n    tag_3:\n      callvalue\n      dup1\n      iszero\n      tag_17\n      jumpi\n      revert(0x00, 0x00)\n    tag_17:\n      pop\n      tag_18\n      tag_19\n      jump\t// in\n    tag_18:\n      stop\n        /* \"NahidTokenSale.sol\":90:128  uint256 public tokenPrice = 0.01 ether */\n    tag_4:\n      callvalue\n      dup1\n      iszero\n      tag_20\n      jumpi\n      revert(0x00, 0x00)\n    tag_20:\n      pop\n      tag_21\n      tag_22\n      jump\t// in\n    tag_21:\n      mload(0x40)\n      tag_23\n      swap2\n      swap1\n      tag_16\n      jump\t// in\n    tag_23:\n      mload(0x40)\n      dup1\n      swap2\n      sub\n      swap1\n      return\n        /* \"NahidTokenSale.sol\":210:230  address public owner */\n    tag_5:\n      callvalue\n      dup1\n      iszero\n      tag_24\n      jumpi\n      revert(0x00, 0x00)\n    tag_24:\n      pop\n      tag_25\n      tag_26\n      jump\t// in\n    tag_25:\n      mload(0x40)\n      tag_27\n      swap2\n      swap1\n      tag_28\n      jump\t// in\n    tag_27:\n      mload(0x40)\n      dup1\n      swap2\n      sub\n      swap1\n      return\n        /* \"NahidTokenSale.sol\":560:902  function buyToken()public payable{... */\n    tag_6:\n      tag_29\n      tag_30\n      jump\t// in\n    tag_29:\n      stop\n        /* \"NahidTokenSale.sol\":171:203  uint256 public totalTransactions */\n    tag_7:\n      callvalue\n      dup1\n      iszero\n      tag_31\n      jumpi\n      revert(0x00, 0x00)\n    tag_31:\n      pop\n      tag_32\n      tag_33\n      jump\t// in\n    tag_32:\n      mload(0x40)\n      tag_34\n      swap2\n      swap1\n      tag_16\n      jump\t// in\n    tag_34:\n      mload(0x40)\n      dup1\n      swap2\n      sub\n      swap1\n      return\n        /* \"NahidTokenSale.sol\":135:164  uint256 public totalEthRaised */\n    tag_8:\n      callvalue\n      dup1\n      iszero\n      tag_35\n      jumpi\n      revert(0x00, 0x00)\n    tag_35:\n      pop\n      tag_36\n      tag_37\n      jump\t// in\n    tag_36:\n      mload(0x40)\n      tag_38\n      swap2\n      swap1\n      tag_16\n      jump\t// in\n    tag_38:\n      mload(0x40)\n      dup1\n      swap2\n      sub\n      swap1\n      return\n        /* \"NahidTokenSale.sol\":237:280  mapping(address => uint256) public balances */\n    tag_14:\n      mstore(0x20, 0x04)\n      dup1\n      0x00\n      mstore\n      keccak256(0x00, 0x40)\n      0x00\n      swap2\n      pop\n      swap1\n      pop\n      sload\n      dup2\n      jump\t// out\n        /* \"NahidTokenSale.sol\":909:1015  function withdraw() public onlyOwner{... */\n    tag_19:\n        /* \"NahidTokenSale.sol\":490:495  owner */\n      0x03\n      0x00\n      swap1\n      sload\n      swap1\n      0x0100\n      exp\n      swap1\n      div\n      0xffffffffffffffffffffffffffffffffffffffff\n      and\n        /* \"NahidTokenSale.sol\":477:495  msg.sender== owner */\n      0xffffffffffffffffffffffffffffffffffffffff\n      and\n        /* \"NahidTokenSale.sol\":477:487  msg.sender */\n      caller\n        /* \"NahidTokenSale.sol\":477:495  msg.sender== owner */\n      0xffffffffffffffffffffffffffffffffffffffff\n      and\n      eq\n        /* \"NahidTokenSale.sol\":469:532  require(msg.sender== owner,\"Only owner can call this function\") */\n      tag_40\n      jumpi\n      mload(0x40)\n      0x08c379a000000000000000000000000000000000000000000000000000000000\n      dup2\n      mstore\n      0x04\n      add\n      tag_41\n      swap1\n      tag_42\n      jump\t// in\n    tag_41:\n      mload(0x40)\n      dup1\n      swap2\n      sub\n      swap1\n      revert\n    tag_40:\n        /* \"NahidTokenSale.sol\":967:972  owner */\n      0x03\n      0x00\n      swap1\n      sload\n      swap1\n      0x0100\n      exp\n      swap1\n      div\n      0xffffffffffffffffffffffffffffffffffffffff\n      and\n        /* \"NahidTokenSale.sol\":959:982  payable(owner).transfer */\n      0xffffffffffffffffffffffffffffffffffffffff\n      and\n        /* \"NahidTokenSale.sol\":959:1005  payable(owner).transfer(address(this).balance) */\n      0x08fc\n        /* \"NahidTokenSale.sol\":983:1004  address(this).balance */\n      selfbalance\n        /* \"NahidTokenSale.sol\":959:1005  payable(owner).transfer(address(this).balance) */\n      swap1\n      dup2\n      iszero\n      mul\n      swap1\n      mload(0x40)\n      0x00\n      mload(0x40)\n      dup1\n      dup4\n      sub\n      dup2\n      dup6\n      dup9\n      dup9\n      call\n      swap4\n      pop\n      pop\n      pop\n      pop\n      iszero\n      dup1\n      iszero\n      tag_45\n      jumpi\n      returndatacopy(0x00, 0x00, returndatasize)\n      revert(0x00, returndatasize)\n    tag_45:\n      pop\n        /* \"NahidTokenSale.sol\":909:1015  function withdraw() public onlyOwner{... */\n      jump\t// out\n        /* \"NahidTokenSale.sol\":90:128  uint256 public tokenPrice = 0.01 ether */\n    tag_22:\n      sload(0x00)\n      dup2\n      jump\t// out\n        /* \"NahidTokenSale.sol\":210:230  address public owner */\n    tag_26:\n      0x03\n      0x00\n      swap1\n      sload\n      swap1\n      0x0100\n      exp\n      swap1\n      div\n      0xffffffffffffffffffffffffffffffffffffffff\n      and\n      dup2\n      jump\t// out\n        /* \"NahidTokenSale.sol\":560:902  function buyToken()public payable{... */\n    tag_30:\n        /* \"NahidTokenSale.sol\":623:624  0 */\n      0x00\n        /* \"NahidTokenSale.sol\":612:621  msg.value */\n      callvalue\n        /* \"NahidTokenSale.sol\":612:624  msg.value >0 */\n      gt\n        /* \"NahidTokenSale.sol\":604:661  require(msg.value >0,\"ETH amount must be greater than 0\") */\n      tag_47\n      jumpi\n      mload(0x40)\n      0x08c379a000000000000000000000000000000000000000000000000000000000\n      dup2\n      mstore\n      0x04\n      add\n      tag_48\n      swap1\n      tag_49\n      jump\t// in\n    tag_48:\n      mload(0x40)\n      dup1\n      swap2\n      sub\n      swap1\n      revert\n    tag_47:\n        /* \"NahidTokenSale.sol\":672:691  uint256 tokensToBuy */\n      0x00\n        /* \"NahidTokenSale.sol\":704:714  tokenPrice */\n      sload(0x00)\n        /* \"NahidTokenSale.sol\":694:703  msg.value */\n      callvalue\n        /* \"NahidTokenSale.sol\":694:714  msg.value/tokenPrice */\n      tag_50\n      swap2\n      swap1\n      tag_51\n      jump\t// in\n    tag_50:\n        /* \"NahidTokenSale.sol\":672:714  uint256 tokensToBuy = msg.value/tokenPrice */\n      swap1\n      pop\n        /* \"NahidTokenSale.sol\":748:759  tokensToBuy */\n      dup1\n        /* \"NahidTokenSale.sol\":725:733  balances */\n      0x04\n        /* \"NahidTokenSale.sol\":725:745  balances[msg.sender] */\n      0x00\n        /* \"NahidTokenSale.sol\":734:744  msg.sender */\n      caller\n        /* \"NahidTokenSale.sol\":725:745  balances[msg.sender] */\n      0xffffffffffffffffffffffffffffffffffffffff\n      and\n      0xffffffffffffffffffffffffffffffffffffffff\n      and\n      dup2\n      mstore\n      0x20\n      add\n      swap1\n      dup2\n      mstore\n      0x20\n      add\n      0x00\n      keccak256\n      0x00\n        /* \"NahidTokenSale.sol\":725:759  balances[msg.sender]+= tokensToBuy */\n      dup3\n      dup3\n      sload\n      tag_52\n      swap2\n      swap1\n      tag_53\n      jump\t// in\n    tag_52:\n      swap3\n      pop\n      pop\n      dup2\n      swap1\n      sstore\n      pop\n        /* \"NahidTokenSale.sol\":790:799  msg.value */\n      callvalue\n        /* \"NahidTokenSale.sol\":772:786  totalEthRaised */\n      0x01\n      0x00\n        /* \"NahidTokenSale.sol\":772:799  totalEthRaised += msg.value */\n      dup3\n      dup3\n      sload\n      tag_54\n      swap2\n      swap1\n      tag_53\n      jump\t// in\n    tag_54:\n      swap3\n      pop\n      pop\n      dup2\n      swap1\n      sstore\n      pop\n        /* \"NahidTokenSale.sol\":810:827  totalTransactions */\n      0x02\n      0x00\n        /* \"NahidTokenSale.sol\":810:829  totalTransactions++ */\n      dup2\n      sload\n      dup1\n      swap3\n      swap2\n      swap1\n      tag_55\n      swap1\n      tag_56\n      jump\t// in\n    tag_55:\n      swap2\n      swap1\n      pop\n      sstore\n      pop\n        /* \"NahidTokenSale.sol\":845:894  TokenPurchased(msg.sender,msg.value, tokensToBuy) */\n      0x3ceffd410054fdaed44f598ff5c1fb450658778e2241892da4aa646979dee617\n        /* \"NahidTokenSale.sol\":860:870  msg.sender */\n      caller\n        /* \"NahidTokenSale.sol\":871:880  msg.value */\n      callvalue\n        /* \"NahidTokenSale.sol\":882:893  tokensToBuy */\n      dup4\n        /* \"NahidTokenSale.sol\":845:894  TokenPurchased(msg.sender,msg.value, tokensToBuy) */\n      mload(0x40)\n      tag_57\n      swap4\n      swap3\n      swap2\n      swap1\n      tag_58\n      jump\t// in\n    tag_57:\n      mload(0x40)\n      dup1\n      swap2\n      sub\n      swap1\n      log1\n        /* \"NahidTokenSale.sol\":593:902  {... */\n      pop\n        /* \"NahidTokenSale.sol\":560:902  function buyToken()public payable{... */\n      jump\t// out\n        /* \"NahidTokenSale.sol\":171:203  uint256 public totalTransactions */\n    tag_33:\n      sload(0x02)\n      dup2\n      jump\t// out\n        /* \"NahidTokenSale.sol\":135:164  uint256 public totalEthRaised */\n    tag_37:\n      sload(0x01)\n      dup2\n      jump\t// out\n        /* \"#utility.yul\":88:205   */\n    tag_60:\n        /* \"#utility.yul\":197:198   */\n      0x00\n        /* \"#utility.yul\":194:195   */\n      0x00\n        /* \"#utility.yul\":187:199   */\n      revert\n        /* \"#utility.yul\":334:460   */\n    tag_62:\n        /* \"#utility.yul\":371:378   */\n      0x00\n        /* \"#utility.yul\":411:453   */\n      0xffffffffffffffffffffffffffffffffffffffff\n        /* \"#utility.yul\":404:409   */\n      dup3\n        /* \"#utility.yul\":400:454   */\n      and\n        /* \"#utility.yul\":389:454   */\n      swap1\n      pop\n        /* \"#utility.yul\":334:460   */\n      swap2\n      swap1\n      pop\n      jump\t// out\n        /* \"#utility.yul\":466:562   */\n    tag_63:\n        /* \"#utility.yul\":503:510   */\n      0x00\n        /* \"#utility.yul\":532:556   */\n      tag_82\n        /* \"#utility.yul\":550:555   */\n      dup3\n        /* \"#utility.yul\":532:556   */\n      tag_62\n      jump\t// in\n    tag_82:\n        /* \"#utility.yul\":521:556   */\n      swap1\n      pop\n        /* \"#utility.yul\":466:562   */\n      swap2\n      swap1\n      pop\n      jump\t// out\n        /* \"#utility.yul\":568:690   */\n    tag_64:\n        /* \"#utility.yul\":641:665   */\n      tag_84\n        /* \"#utility.yul\":659:664   */\n      dup2\n        /* \"#utility.yul\":641:665   */\n      tag_63\n      jump\t// in\n    tag_84:\n        /* \"#utility.yul\":634:639   */\n      dup2\n        /* \"#utility.yul\":631:666   */\n      eq\n        /* \"#utility.yul\":621:684   */\n      tag_85\n      jumpi\n        /* \"#utility.yul\":680:681   */\n      0x00\n        /* \"#utility.yul\":677:678   */\n      0x00\n        /* \"#utility.yul\":670:682   */\n      revert\n        /* \"#utility.yul\":621:684   */\n    tag_85:\n        /* \"#utility.yul\":568:690   */\n      pop\n      jump\t// out\n        /* \"#utility.yul\":696:835   */\n    tag_65:\n        /* \"#utility.yul\":742:747   */\n      0x00\n        /* \"#utility.yul\":780:786   */\n      dup2\n        /* \"#utility.yul\":767:787   */\n      calldataload\n        /* \"#utility.yul\":758:787   */\n      swap1\n      pop\n        /* \"#utility.yul\":796:829   */\n      tag_87\n        /* \"#utility.yul\":823:828   */\n      dup2\n        /* \"#utility.yul\":796:829   */\n      tag_64\n      jump\t// in\n    tag_87:\n        /* \"#utility.yul\":696:835   */\n      swap3\n      swap2\n      pop\n      pop\n      jump\t// out\n        /* \"#utility.yul\":841:1170   */\n    tag_13:\n        /* \"#utility.yul\":900:906   */\n      0x00\n        /* \"#utility.yul\":949:951   */\n      0x20\n        /* \"#utility.yul\":937:946   */\n      dup3\n        /* \"#utility.yul\":928:935   */\n      dup5\n        /* \"#utility.yul\":924:947   */\n      sub\n        /* \"#utility.yul\":920:952   */\n      slt\n        /* \"#utility.yul\":917:1036   */\n      iszero\n      tag_89\n      jumpi\n        /* \"#utility.yul\":955:1034   */\n      tag_90\n      tag_60\n      jump\t// in\n    tag_90:\n        /* \"#utility.yul\":917:1036   */\n    tag_89:\n        /* \"#utility.yul\":1075:1076   */\n      0x00\n        /* \"#utility.yul\":1100:1153   */\n      tag_91\n        /* \"#utility.yul\":1145:1152   */\n      dup5\n        /* \"#utility.yul\":1136:1142   */\n      dup3\n        /* \"#utility.yul\":1125:1134   */\n      dup6\n        /* \"#utility.yul\":1121:1143   */\n      add\n        /* \"#utility.yul\":1100:1153   */\n      tag_65\n      jump\t// in\n    tag_91:\n        /* \"#utility.yul\":1090:1153   */\n      swap2\n      pop\n        /* \"#utility.yul\":1046:1163   */\n      pop\n        /* \"#utility.yul\":841:1170   */\n      swap3\n      swap2\n      pop\n      pop\n      jump\t// out\n        /* \"#utility.yul\":1176:1253   */\n    tag_66:\n        /* \"#utility.yul\":1213:1220   */\n      0x00\n        /* \"#utility.yul\":1242:1247   */\n      dup2\n        /* \"#utility.yul\":1231:1247   */\n      swap1\n      pop\n        /* \"#utility.yul\":1176:1253   */\n      swap2\n      swap1\n      pop\n      jump\t// out\n        /* \"#utility.yul\":1259:1377   */\n    tag_67:\n        /* \"#utility.yul\":1346:1370   */\n      tag_94\n        /* \"#utility.yul\":1364:1369   */\n      dup2\n        /* \"#utility.yul\":1346:1370   */\n      tag_66\n      jump\t// in\n    tag_94:\n        /* \"#utility.yul\":1341:1344   */\n      dup3\n        /* \"#utility.yul\":1334:1371   */\n      mstore\n        /* \"#utility.yul\":1259:1377   */\n      pop\n      pop\n      jump\t// out\n        /* \"#utility.yul\":1383:1605   */\n    tag_16:\n        /* \"#utility.yul\":1476:1480   */\n      0x00\n        /* \"#utility.yul\":1514:1516   */\n      0x20\n        /* \"#utility.yul\":1503:1512   */\n      dup3\n        /* \"#utility.yul\":1499:1517   */\n      add\n        /* \"#utility.yul\":1491:1517   */\n      swap1\n      pop\n        /* \"#utility.yul\":1527:1598   */\n      tag_96\n        /* \"#utility.yul\":1595:1596   */\n      0x00\n        /* \"#utility.yul\":1584:1593   */\n      dup4\n        /* \"#utility.yul\":1580:1597   */\n      add\n        /* \"#utility.yul\":1571:1577   */\n      dup5\n        /* \"#utility.yul\":1527:1598   */\n      tag_67\n      jump\t// in\n    tag_96:\n        /* \"#utility.yul\":1383:1605   */\n      swap3\n      swap2\n      pop\n      pop\n      jump\t// out\n        /* \"#utility.yul\":1611:1729   */\n    tag_68:\n        /* \"#utility.yul\":1698:1722   */\n      tag_98\n        /* \"#utility.yul\":1716:1721   */\n      dup2\n        /* \"#utility.yul\":1698:1722   */\n      tag_63\n      jump\t// in\n    tag_98:\n        /* \"#utility.yul\":1693:1696   */\n      dup3\n        /* \"#utility.yul\":1686:1723   */\n      mstore\n        /* \"#utility.yul\":1611:1729   */\n      pop\n      pop\n      jump\t// out\n        /* \"#utility.yul\":1735:1957   */\n    tag_28:\n        /* \"#utility.yul\":1828:1832   */\n      0x00\n        /* \"#utility.yul\":1866:1868   */\n      0x20\n        /* \"#utility.yul\":1855:1864   */\n      dup3\n        /* \"#utility.yul\":1851:1869   */\n      add\n        /* \"#utility.yul\":1843:1869   */\n      swap1\n      pop\n        /* \"#utility.yul\":1879:1950   */\n      tag_100\n        /* \"#utility.yul\":1947:1948   */\n      0x00\n        /* \"#utility.yul\":1936:1945   */\n      dup4\n        /* \"#utility.yul\":1932:1949   */\n      add\n        /* \"#utility.yul\":1923:1929   */\n      dup5\n        /* \"#utility.yul\":1879:1950   */\n      tag_68\n      jump\t// in\n    tag_100:\n        /* \"#utility.yul\":1735:1957   */\n      swap3\n      swap2\n      pop\n      pop\n      jump\t// out\n        /* \"#utility.yul\":1963:2132   */\n    tag_69:\n        /* \"#utility.yul\":2047:2058   */\n      0x00\n        /* \"#utility.yul\":2081:2087   */\n      dup3\n        /* \"#utility.yul\":2076:2079   */\n      dup3\n        /* \"#utility.yul\":2069:2088   */\n      mstore\n        /* \"#utility.yul\":2121:2125   */\n      0x20\n        /* \"#utility.yul\":2116:2119   */\n      dup3\n        /* \"#utility.yul\":2112:2126   */\n      add\n        /* \"#utility.yul\":2097:2126   */\n      swap1\n      pop\n        /* \"#utility.yul\":1963:2132   */\n      swap3\n      swap2\n      pop\n      pop\n      jump\t// out\n        /* \"#utility.yul\":2138:2358   */\n    tag_70:\n        /* \"#utility.yul\":2278:2312   */\n      0x4f6e6c79206f776e65722063616e2063616c6c20746869732066756e6374696f\n        /* \"#utility.yul\":2274:2275   */\n      0x00\n        /* \"#utility.yul\":2266:2272   */\n      dup3\n        /* \"#utility.yul\":2262:2276   */\n      add\n        /* \"#utility.yul\":2255:2313   */\n      mstore\n        /* \"#utility.yul\":2347:2350   */\n      0x6e00000000000000000000000000000000000000000000000000000000000000\n        /* \"#utility.yul\":2342:2344   */\n      0x20\n        /* \"#utility.yul\":2334:2340   */\n      dup3\n        /* \"#utility.yul\":2330:2345   */\n      add\n        /* \"#utility.yul\":2323:2351   */\n      mstore\n        /* \"#utility.yul\":2138:2358   */\n      pop\n      jump\t// out\n        /* \"#utility.yul\":2364:2730   */\n    tag_71:\n        /* \"#utility.yul\":2506:2509   */\n      0x00\n        /* \"#utility.yul\":2527:2594   */\n      tag_104\n        /* \"#utility.yul\":2591:2593   */\n      0x21\n        /* \"#utility.yul\":2586:2589   */\n      dup4\n        /* \"#utility.yul\":2527:2594   */\n      tag_69\n      jump\t// in\n    tag_104:\n        /* \"#utility.yul\":2520:2594   */\n      swap2\n      pop\n        /* \"#utility.yul\":2603:2696   */\n      tag_105\n        /* \"#utility.yul\":2692:2695   */\n      dup3\n        /* \"#utility.yul\":2603:2696   */\n      tag_70\n      jump\t// in\n    tag_105:\n        /* \"#utility.yul\":2721:2723   */\n      0x40\n        /* \"#utility.yul\":2716:2719   */\n      dup3\n        /* \"#utility.yul\":2712:2724   */\n      add\n        /* \"#utility.yul\":2705:2724   */\n      swap1\n      pop\n        /* \"#utility.yul\":2364:2730   */\n      swap2\n      swap1\n      pop\n      jump\t// out\n        /* \"#utility.yul\":2736:3155   */\n    tag_42:\n        /* \"#utility.yul\":2902:2906   */\n      0x00\n        /* \"#utility.yul\":2940:2942   */\n      0x20\n        /* \"#utility.yul\":2929:2938   */\n      dup3\n        /* \"#utility.yul\":2925:2943   */\n      add\n        /* \"#utility.yul\":2917:2943   */\n      swap1\n      pop\n        /* \"#utility.yul\":2989:2998   */\n      dup2\n        /* \"#utility.yul\":2983:2987   */\n      dup2\n        /* \"#utility.yul\":2979:2999   */\n      sub\n        /* \"#utility.yul\":2975:2976   */\n      0x00\n        /* \"#utility.yul\":2964:2973   */\n      dup4\n        /* \"#utility.yul\":2960:2977   */\n      add\n        /* \"#utility.yul\":2953:3000   */\n      mstore\n        /* \"#utility.yul\":3017:3148   */\n      tag_107\n        /* \"#utility.yul\":3143:3147   */\n      dup2\n        /* \"#utility.yul\":3017:3148   */\n      tag_71\n      jump\t// in\n    tag_107:\n        /* \"#utility.yul\":3009:3148   */\n      swap1\n      pop\n        /* \"#utility.yul\":2736:3155   */\n      swap2\n      swap1\n      pop\n      jump\t// out\n        /* \"#utility.yul\":3161:3381   */\n    tag_72:\n        /* \"#utility.yul\":3301:3335   */\n      0x45544820616d6f756e74206d7573742062652067726561746572207468616e20\n        /* \"#utility.yul\":3297:3298   */\n      0x00\n        /* \"#utility.yul\":3289:3295   */\n      dup3\n        /* \"#utility.yul\":3285:3299   */\n      add\n        /* \"#utility.yul\":3278:3336   */\n      mstore\n        /* \"#utility.yul\":3370:3373   */\n      0x3000000000000000000000000000000000000000000000000000000000000000\n        /* \"#utility.yul\":3365:3367   */\n      0x20\n        /* \"#utility.yul\":3357:3363   */\n      dup3\n        /* \"#utility.yul\":3353:3368   */\n      add\n        /* \"#utility.yul\":3346:3374   */\n      mstore\n        /* \"#utility.yul\":3161:3381   */\n      pop\n      jump\t// out\n        /* \"#utility.yul\":3387:3753   */\n    tag_73:\n        /* \"#utility.yul\":3529:3532   */\n      0x00\n        /* \"#utility.yul\":3550:3617   */\n      tag_110\n        /* \"#utility.yul\":3614:3616   */\n      0x21\n        /* \"#utility.yul\":3609:3612   */\n      dup4\n        /* \"#utility.yul\":3550:3617   */\n      tag_69\n      jump\t// in\n    tag_110:\n        /* \"#utility.yul\":3543:3617   */\n      swap2\n      pop\n        /* \"#utility.yul\":3626:3719   */\n      tag_111\n        /* \"#utility.yul\":3715:3718   */\n      dup3\n        /* \"#utility.yul\":3626:3719   */\n      tag_72\n      jump\t// in\n    tag_111:\n        /* \"#utility.yul\":3744:3746   */\n      0x40\n        /* \"#utility.yul\":3739:3742   */\n      dup3\n        /* \"#utility.yul\":3735:3747   */\n      add\n        /* \"#utility.yul\":3728:3747   */\n      swap1\n      pop\n        /* \"#utility.yul\":3387:3753   */\n      swap2\n      swap1\n      pop\n      jump\t// out\n        /* \"#utility.yul\":3759:4178   */\n    tag_49:\n        /* \"#utility.yul\":3925:3929   */\n      0x00\n        /* \"#utility.yul\":3963:3965   */\n      0x20\n        /* \"#utility.yul\":3952:3961   */\n      dup3\n        /* \"#utility.yul\":3948:3966   */\n      add\n        /* \"#utility.yul\":3940:3966   */\n      swap1\n      pop\n        /* \"#utility.yul\":4012:4021   */\n      dup2\n        /* \"#utility.yul\":4006:4010   */\n      dup2\n        /* \"#utility.yul\":4002:4022   */\n      sub\n        /* \"#utility.yul\":3998:3999   */\n      0x00\n        /* \"#utility.yul\":3987:3996   */\n      dup4\n        /* \"#utility.yul\":3983:4000   */\n      add\n        /* \"#utility.yul\":3976:4023   */\n      mstore\n        /* \"#utility.yul\":4040:4171   */\n      tag_113\n        /* \"#utility.yul\":4166:4170   */\n      dup2\n        /* \"#utility.yul\":4040:4171   */\n      tag_73\n      jump\t// in\n    tag_113:\n        /* \"#utility.yul\":4032:4171   */\n      swap1\n      pop\n        /* \"#utility.yul\":3759:4178   */\n      swap2\n      swap1\n      pop\n      jump\t// out\n        /* \"#utility.yul\":4184:4364   */\n    tag_74:\n        /* \"#utility.yul\":4232:4309   */\n      0x4e487b7100000000000000000000000000000000000000000000000000000000\n        /* \"#utility.yul\":4229:4230   */\n      0x00\n        /* \"#utility.yul\":4222:4310   */\n      mstore\n        /* \"#utility.yul\":4329:4333   */\n      0x12\n        /* \"#utility.yul\":4326:4327   */\n      0x04\n        /* \"#utility.yul\":4319:4334   */\n      mstore\n        /* \"#utility.yul\":4353:4357   */\n      0x24\n        /* \"#utility.yul\":4350:4351   */\n      0x00\n        /* \"#utility.yul\":4343:4358   */\n      revert\n        /* \"#utility.yul\":4370:4550   */\n    tag_75:\n        /* \"#utility.yul\":4418:4495   */\n      0x4e487b7100000000000000000000000000000000000000000000000000000000\n        /* \"#utility.yul\":4415:4416   */\n      0x00\n        /* \"#utility.yul\":4408:4496   */\n      mstore\n        /* \"#utility.yul\":4515:4519   */\n      0x11\n        /* \"#utility.yul\":4512:4513   */\n      0x04\n        /* \"#utility.yul\":4505:4520   */\n      mstore\n        /* \"#utility.yul\":4539:4543   */\n      0x24\n        /* \"#utility.yul\":4536:4537   */\n      0x00\n        /* \"#utility.yul\":4529:4544   */\n      revert\n        /* \"#utility.yul\":4556:4741   */\n    tag_51:\n        /* \"#utility.yul\":4596:4597   */\n      0x00\n        /* \"#utility.yul\":4613:4633   */\n      tag_117\n        /* \"#utility.yul\":4631:4632   */\n      dup3\n        /* \"#utility.yul\":4613:4633   */\n      tag_66\n      jump\t// in\n    tag_117:\n        /* \"#utility.yul\":4608:4633   */\n      swap2\n      pop\n        /* \"#utility.yul\":4647:4667   */\n      tag_118\n        /* \"#utility.yul\":4665:4666   */\n      dup4\n        /* \"#utility.yul\":4647:4667   */\n      tag_66\n      jump\t// in\n    tag_118:\n        /* \"#utility.yul\":4642:4667   */\n      swap3\n      pop\n        /* \"#utility.yul\":4686:4687   */\n      dup3\n        /* \"#utility.yul\":4676:4711   */\n      tag_119\n      jumpi\n        /* \"#utility.yul\":4691:4709   */\n      tag_120\n      tag_74\n      jump\t// in\n    tag_120:\n        /* \"#utility.yul\":4676:4711   */\n    tag_119:\n        /* \"#utility.yul\":4733:4734   */\n      dup3\n        /* \"#utility.yul\":4730:4731   */\n      dup3\n        /* \"#utility.yul\":4726:4735   */\n      div\n        /* \"#utility.yul\":4721:4735   */\n      swap1\n      pop\n        /* \"#utility.yul\":4556:4741   */\n      swap3\n      swap2\n      pop\n      pop\n      jump\t// out\n        /* \"#utility.yul\":4747:4938   */\n    tag_53:\n        /* \"#utility.yul\":4787:4790   */\n      0x00\n        /* \"#utility.yul\":4806:4826   */\n      tag_122\n        /* \"#utility.yul\":4824:4825   */\n      dup3\n        /* \"#utility.yul\":4806:4826   */\n      tag_66\n      jump\t// in\n    tag_122:\n        /* \"#utility.yul\":4801:4826   */\n      swap2\n      pop\n        /* \"#utility.yul\":4840:4860   */\n      tag_123\n        /* \"#utility.yul\":4858:4859   */\n      dup4\n        /* \"#utility.yul\":4840:4860   */\n      tag_66\n      jump\t// in\n    tag_123:\n        /* \"#utility.yul\":4835:4860   */\n      swap3\n      pop\n        /* \"#utility.yul\":4883:4884   */\n      dup3\n        /* \"#utility.yul\":4880:4881   */\n      dup3\n        /* \"#utility.yul\":4876:4885   */\n      add\n        /* \"#utility.yul\":4869:4885   */\n      swap1\n      pop\n        /* \"#utility.yul\":4904:4907   */\n      dup1\n        /* \"#utility.yul\":4901:4902   */\n      dup3\n        /* \"#utility.yul\":4898:4908   */\n      gt\n        /* \"#utility.yul\":4895:4931   */\n      iszero\n      tag_124\n      jumpi\n        /* \"#utility.yul\":4911:4929   */\n      tag_125\n      tag_75\n      jump\t// in\n    tag_125:\n        /* \"#utility.yul\":4895:4931   */\n    tag_124:\n        /* \"#utility.yul\":4747:4938   */\n      swap3\n      swap2\n      pop\n      pop\n      jump\t// out\n        /* \"#utility.yul\":4944:5177   */\n    tag_56:\n        /* \"#utility.yul\":4983:4986   */\n      0x00\n        /* \"#utility.yul\":5006:5030   */\n      tag_127\n        /* \"#utility.yul\":5024:5029   */\n      dup3\n        /* \"#utility.yul\":5006:5030   */\n      tag_66\n      jump\t// in\n    tag_127:\n        /* \"#utility.yul\":4997:5030   */\n      swap2\n      pop\n        /* \"#utility.yul\":5052:5118   */\n      0xffffffffffffffffffffffffffffffffffffffffffffffffffffffffffffffff\n        /* \"#utility.yul\":5045:5050   */\n      dup3\n        /* \"#utility.yul\":5042:5119   */\n      sub\n        /* \"#utility.yul\":5039:5142   */\n      tag_128\n      jumpi\n        /* \"#utility.yul\":5122:5140   */\n      tag_129\n      tag_75\n      jump\t// in\n    tag_129:\n        /* \"#utility.yul\":5039:5142   */\n    tag_128:\n        /* \"#utility.yul\":5169:5170   */\n      0x01\n        /* \"#utility.yul\":5162:5167   */\n      dup3\n        /* \"#utility.yul\":5158:5171   */\n      add\n        /* \"#utility.yul\":5151:5171   */\n      swap1\n      pop\n        /* \"#utility.yul\":4944:5177   */\n      swap2\n      swap1\n      pop\n      jump\t// out\n        /* \"#utility.yul\":5183:5625   */\n    tag_58:\n        /* \"#utility.yul\":5332:5336   */\n      0x00\n        /* \"#utility.yul\":5370:5372   */\n      0x60\n        /* \"#utility.yul\":5359:5368   */\n      dup3\n        /* \"#utility.yul\":5355:5373   */\n      add\n        /* \"#utility.yul\":5347:5373   */\n      swap1\n      pop\n        /* \"#utility.yul\":5383:5454   */\n      tag_131\n        /* \"#utility.yul\":5451:5452   */\n      0x00\n        /* \"#utility.yul\":5440:5449   */\n      dup4\n        /* \"#utility.yul\":5436:5453   */\n      add\n        /* \"#utility.yul\":5427:5433   */\n      dup7\n        /* \"#utility.yul\":5383:5454   */\n      tag_68\n      jump\t// in\n    tag_131:\n        /* \"#utility.yul\":5464:5536   */\n      tag_132\n        /* \"#utility.yul\":5532:5534   */\n      0x20\n        /* \"#utility.yul\":5521:5530   */\n      dup4\n        /* \"#utility.yul\":5517:5535   */\n      add\n        /* \"#utility.yul\":5508:5514   */\n      dup6\n        /* \"#utility.yul\":5464:5536   */\n      tag_67\n      jump\t// in\n    tag_132:\n        /* \"#utility.yul\":5546:5618   */\n      tag_133\n        /* \"#utility.yul\":5614:5616   */\n      0x40\n        /* \"#utility.yul\":5603:5612   */\n      dup4\n        /* \"#utility.yul\":5599:5617   */\n      add\n        /* \"#utility.yul\":5590:5596   */\n      dup5\n        /* \"#utility.yul\":5546:5618   */\n      tag_67\n      jump\t// in\n    tag_133:\n        /* \"#utility.yul\":5183:5625   */\n      swap5\n      swap4\n      pop\n      pop\n      pop\n      pop\n      jump\t// out\n\n    auxdata: 0xa264697066735822122050f6e4f416da8fcd90a630adae6ad7dc10c5ee0ba5a4b1ea3b0f30ba9376f59664736f6c634300081e0033\n}\n",
				"bytecode": {
					"linkReferences": {},
					"object": "6080604052662386f26fc100005f553480156018575f5ffd5b503360035f6101000a81548173ffffffffffffffffffffffffffffffffffffffff021916908373ffffffffffffffffffffffffffffffffffffffff160217905550610747806100665f395ff3fe60806040526004361061006f575f3560e01c80638da5cb5b1161004d5780638da5cb5b146100ef578063a482171914610119578063b9a6003814610123578063c9e904be1461014d5761006f565b806327e235e3146100735780633ccfd60b146100af5780637ff9b596146100c5575b5f5ffd5b34801561007e575f5ffd5b5061009960048036038101906100949190610428565b610177565b6040516100a6919061046b565b60405180910390f35b3480156100ba575f5ffd5b506100c361018c565b005b3480156100d0575f5ffd5b506100d9610282565b6040516100e6919061046b565b60405180910390f35b3480156100fa575f5ffd5b50610103610287565b6040516101109190610493565b60405180910390f35b6101216102ac565b005b34801561012e575f5ffd5b506101376103be565b604051610144919061046b565b60405180910390f35b348015610158575f5ffd5b506101616103c4565b60405161016e919061046b565b60405180910390f35b6004602052805f5260405f205f915090505481565b60035f9054906101000a900473ffffffffffffffffffffffffffffffffffffffff1673ffffffffffffffffffffffffffffffffffffffff163373ffffffffffffffffffffffffffffffffffffffff161461021b576040517f08c379a00000000000000000000000000000000000000000000000000000000081526004016102129061052c565b60405180910390fd5b60035f9054906101000a900473ffffffffffffffffffffffffffffffffffffffff1673ffffffffffffffffffffffffffffffffffffffff166108fc4790811502906040515f60405180830381858888f1935050505015801561027f573d5f5f3e3d5ffd5b50565b5f5481565b60035f9054906101000a900473ffffffffffffffffffffffffffffffffffffffff1681565b5f34116102ee576040517f08c379a00000000000000000000000000000000000000000000000000000000081526004016102e5906105ba565b60405180910390fd5b5f5f54346102fc9190610632565b90508060045f3373ffffffffffffffffffffffffffffffffffffffff1673ffffffffffffffffffffffffffffffffffffffff1681526020019081526020015f205f82825461034a9190610662565b925050819055503460015f8282546103629190610662565b9250508190555060025f81548092919061037b90610695565b91905055507f3ceffd410054fdaed44f598ff5c1fb450658778e2241892da4aa646979dee6173334836040516103b3939291906106dc565b60405180910390a150565b60025481565b60015481565b5f5ffd5b5f73ffffffffffffffffffffffffffffffffffffffff82169050919050565b5f6103f7826103ce565b9050919050565b610407816103ed565b8114610411575f5ffd5b50565b5f81359050610422816103fe565b92915050565b5f6020828403121561043d5761043c6103ca565b5b5f61044a84828501610414565b91505092915050565b5f819050919050565b61046581610453565b82525050565b5f60208201905061047e5f83018461045c565b92915050565b61048d816103ed565b82525050565b5f6020820190506104a65f830184610484565b92915050565b5f82825260208201905092915050565b7f4f6e6c79206f776e65722063616e2063616c6c20746869732066756e6374696f5f8201527f6e00000000000000000000000000000000000000000000000000000000000000602082015250565b5f6105166021836104ac565b9150610521826104bc565b604082019050919050565b5f6020820190508181035f8301526105438161050a565b9050919050565b7f45544820616d6f756e74206d7573742062652067726561746572207468616e205f8201527f3000000000000000000000000000000000000000000000000000000000000000602082015250565b5f6105a46021836104ac565b91506105af8261054a565b604082019050919050565b5f6020820190508181035f8301526105d181610598565b9050919050565b7f4e487b71000000000000000000000000000000000000000000000000000000005f52601260045260245ffd5b7f4e487b71000000000000000000000000000000000000000000000000000000005f52601160045260245ffd5b5f61063c82610453565b915061064783610453565b925082610657576106566105d8565b5b828204905092915050565b5f61066c82610453565b915061067783610453565b925082820190508082111561068f5761068e610605565b5b92915050565b5f61069f82610453565b91507fffffffffffffffffffffffffffffffffffffffffffffffffffffffffffffffff82036106d1576106d0610605565b5b600182019050919050565b5f6060820190506106ef5f830186610484565b6106fc602083018561045c565b610709604083018461045c565b94935050505056fea264697066735822122050f6e4f416da8fcd90a630adae6ad7dc10c5ee0ba5a4b1ea3b0f30ba9376f59664736f6c634300081e0033",
					"opcodes": "PUSH1 0x80 PUSH1 0x40 MSTORE PUSH7 0x2386F26FC10000 PUSH0 SSTORE CALLVALUE DUP1 ISZERO PUSH1 0x18 JUMPI PUSH0 PUSH0 REVERT JUMPDEST POP CALLER PUSH1 0x3 PUSH0 PUSH2 0x100 EXP DUP2 SLOAD DUP2 PUSH20 0xFFFFFFFFFFFFFFFFFFFFFFFFFFFFFFFFFFFFFFFF MUL NOT AND SWAP1 DUP4 PUSH20 0xFFFFFFFFFFFFFFFFFFFFFFFFFFFFFFFFFFFFFFFF AND MUL OR SWAP1 SSTORE POP PUSH2 0x747 DUP1 PUSH2 0x66 PUSH0 CODECOPY PUSH0 RETURN INVALID PUSH1 0x80 PUSH1 0x40 MSTORE PUSH1 0x4 CALLDATASIZE LT PUSH2 0x6F JUMPI PUSH0 CALLDATALOAD PUSH1 0xE0 SHR DUP1 PUSH4 0x8DA5CB5B GT PUSH2 0x4D JUMPI DUP1 PUSH4 0x8DA5CB5B EQ PUSH2 0xEF JUMPI DUP1 PUSH4 0xA4821719 EQ PUSH2 0x119 JUMPI DUP1 PUSH4 0xB9A60038 EQ PUSH2 0x123 JUMPI DUP1 PUSH4 0xC9E904BE EQ PUSH2 0x14D JUMPI PUSH2 0x6F JUMP JUMPDEST DUP1 PUSH4 0x27E235E3 EQ PUSH2 0x73 JUMPI DUP1 PUSH4 0x3CCFD60B EQ PUSH2 0xAF JUMPI DUP1 PUSH4 0x7FF9B596 EQ PUSH2 0xC5 JUMPI JUMPDEST PUSH0 PUSH0 REVERT JUMPDEST CALLVALUE DUP1 ISZERO PUSH2 0x7E JUMPI PUSH0 PUSH0 REVERT JUMPDEST POP PUSH2 0x99 PUSH1 0x4 DUP1 CALLDATASIZE SUB DUP2 ADD SWAP1 PUSH2 0x94 SWAP2 SWAP1 PUSH2 0x428 JUMP JUMPDEST PUSH2 0x177 JUMP JUMPDEST PUSH1 0x40 MLOAD PUSH2 0xA6 SWAP2 SWAP1 PUSH2 0x46B JUMP JUMPDEST PUSH1 0x40 MLOAD DUP1 SWAP2 SUB SWAP1 RETURN JUMPDEST CALLVALUE DUP1 ISZERO PUSH2 0xBA JUMPI PUSH0 PUSH0 REVERT JUMPDEST POP PUSH2 0xC3 PUSH2 0x18C JUMP JUMPDEST STOP JUMPDEST CALLVALUE DUP1 ISZERO PUSH2 0xD0 JUMPI PUSH0 PUSH0 REVERT JUMPDEST POP PUSH2 0xD9 PUSH2 0x282 JUMP JUMPDEST PUSH1 0x40 MLOAD PUSH2 0xE6 SWAP2 SWAP1 PUSH2 0x46B JUMP JUMPDEST PUSH1 0x40 MLOAD DUP1 SWAP2 SUB SWAP1 RETURN JUMPDEST CALLVALUE DUP1 ISZERO PUSH2 0xFA JUMPI PUSH0 PUSH0 REVERT JUMPDEST POP PUSH2 0x103 PUSH2 0x287 JUMP JUMPDEST PUSH1 0x40 MLOAD PUSH2 0x110 SWAP2 SWAP1 PUSH2 0x493 JUMP JUMPDEST PUSH1 0x40 MLOAD DUP1 SWAP2 SUB SWAP1 RETURN JUMPDEST PUSH2 0x121 PUSH2 0x2AC JUMP JUMPDEST STOP JUMPDEST CALLVALUE DUP1 ISZERO PUSH2 0x12E JUMPI PUSH0 PUSH0 REVERT JUMPDEST POP PUSH2 0x137 PUSH2 0x3BE JUMP JUMPDEST PUSH1 0x40 MLOAD PUSH2 0x144 SWAP2 SWAP1 PUSH2 0x46B JUMP JUMPDEST PUSH1 0x40 MLOAD DUP1 SWAP2 SUB SWAP1 RETURN JUMPDEST CALLVALUE DUP1 ISZERO PUSH2 0x158 JUMPI PUSH0 PUSH0 REVERT JUMPDEST POP PUSH2 0x161 PUSH2 0x3C4 JUMP JUMPDEST PUSH1 0x40 MLOAD PUSH2 0x16E SWAP2 SWAP1 PUSH2 0x46B JUMP JUMPDEST PUSH1 0x40 MLOAD DUP1 SWAP2 SUB SWAP1 RETURN JUMPDEST PUSH1 0x4 PUSH1 0x20 MSTORE DUP1 PUSH0 MSTORE PUSH1 0x40 PUSH0 KECCAK256 PUSH0 SWAP2 POP SWAP1 POP SLOAD DUP2 JUMP JUMPDEST PUSH1 0x3 PUSH0 SWAP1 SLOAD SWAP1 PUSH2 0x100 EXP SWAP1 DIV PUSH20 0xFFFFFFFFFFFFFFFFFFFFFFFFFFFFFFFFFFFFFFFF AND PUSH20 0xFFFFFFFFFFFFFFFFFFFFFFFFFFFFFFFFFFFFFFFF AND CALLER PUSH20 0xFFFFFFFFFFFFFFFFFFFFFFFFFFFFFFFFFFFFFFFF AND EQ PUSH2 0x21B JUMPI PUSH1 0x40 MLOAD PUSH32 0x8C379A000000000000000000000000000000000000000000000000000000000 DUP2 MSTORE PUSH1 0x4 ADD PUSH2 0x212 SWAP1 PUSH2 0x52C JUMP JUMPDEST PUSH1 0x40 MLOAD DUP1 SWAP2 SUB SWAP1 REVERT JUMPDEST PUSH1 0x3 PUSH0 SWAP1 SLOAD SWAP1 PUSH2 0x100 EXP SWAP1 DIV PUSH20 0xFFFFFFFFFFFFFFFFFFFFFFFFFFFFFFFFFFFFFFFF AND PUSH20 0xFFFFFFFFFFFFFFFFFFFFFFFFFFFFFFFFFFFFFFFF AND PUSH2 0x8FC SELFBALANCE SWAP1 DUP2 ISZERO MUL SWAP1 PUSH1 0x40 MLOAD PUSH0 PUSH1 0x40 MLOAD DUP1 DUP4 SUB DUP2 DUP6 DUP9 DUP9 CALL SWAP4 POP POP POP POP ISZERO DUP1 ISZERO PUSH2 0x27F JUMPI RETURNDATASIZE PUSH0 PUSH0 RETURNDATACOPY RETURNDATASIZE PUSH0 REVERT JUMPDEST POP JUMP JUMPDEST PUSH0 SLOAD DUP2 JUMP JUMPDEST PUSH1 0x3 PUSH0 SWAP1 SLOAD SWAP1 PUSH2 0x100 EXP SWAP1 DIV PUSH20 0xFFFFFFFFFFFFFFFFFFFFFFFFFFFFFFFFFFFFFFFF AND DUP2 JUMP JUMPDEST PUSH0 CALLVALUE GT PUSH2 0x2EE JUMPI PUSH1 0x40 MLOAD PUSH32 0x8C379A000000000000000000000000000000000000000000000000000000000 DUP2 MSTORE PUSH1 0x4 ADD PUSH2 0x2E5 SWAP1 PUSH2 0x5BA JUMP JUMPDEST PUSH1 0x40 MLOAD DUP1 SWAP2 SUB SWAP1 REVERT JUMPDEST PUSH0 PUSH0 SLOAD CALLVALUE PUSH2 0x2FC SWAP2 SWAP1 PUSH2 0x632 JUMP JUMPDEST SWAP1 POP DUP1 PUSH1 0x4 PUSH0 CALLER PUSH20 0xFFFFFFFFFFFFFFFFFFFFFFFFFFFFFFFFFFFFFFFF AND PUSH20 0xFFFFFFFFFFFFFFFFFFFFFFFFFFFFFFFFFFFFFFFF AND DUP2 MSTORE PUSH1 0x20 ADD SWAP1 DUP2 MSTORE PUSH1 0x20 ADD PUSH0 KECCAK256 PUSH0 DUP3 DUP3 SLOAD PUSH2 0x34A SWAP2 SWAP1 PUSH2 0x662 JUMP JUMPDEST SWAP3 POP POP DUP2 SWAP1 SSTORE POP CALLVALUE PUSH1 0x1 PUSH0 DUP3 DUP3 SLOAD PUSH2 0x362 SWAP2 SWAP1 PUSH2 0x662 JUMP JUMPDEST SWAP3 POP POP DUP2 SWAP1 SSTORE POP PUSH1 0x2 PUSH0 DUP2 SLOAD DUP1 SWAP3 SWAP2 SWAP1 PUSH2 0x37B SWAP1 PUSH2 0x695 JUMP JUMPDEST SWAP2 SWAP1 POP SSTORE POP PUSH32 0x3CEFFD410054FDAED44F598FF5C1FB450658778E2241892DA4AA646979DEE617 CALLER CALLVALUE DUP4 PUSH1 0x40 MLOAD PUSH2 0x3B3 SWAP4 SWAP3 SWAP2 SWAP1 PUSH2 0x6DC JUMP JUMPDEST PUSH1 0x40 MLOAD DUP1 SWAP2 SUB SWAP1 LOG1 POP JUMP JUMPDEST PUSH1 0x2 SLOAD DUP2 JUMP JUMPDEST PUSH1 0x1 SLOAD DUP2 JUMP JUMPDEST PUSH0 PUSH0 REVERT JUMPDEST PUSH0 PUSH20 0xFFFFFFFFFFFFFFFFFFFFFFFFFFFFFFFFFFFFFFFF DUP3 AND SWAP1 POP SWAP2 SWAP1 POP JUMP JUMPDEST PUSH0 PUSH2 0x3F7 DUP3 PUSH2 0x3CE JUMP JUMPDEST SWAP1 POP SWAP2 SWAP1 POP JUMP JUMPDEST PUSH2 0x407 DUP2 PUSH2 0x3ED JUMP JUMPDEST DUP2 EQ PUSH2 0x411 JUMPI PUSH0 PUSH0 REVERT JUMPDEST POP JUMP JUMPDEST PUSH0 DUP2 CALLDATALOAD SWAP1 POP PUSH2 0x422 DUP2 PUSH2 0x3FE JUMP JUMPDEST SWAP3 SWAP2 POP POP JUMP JUMPDEST PUSH0 PUSH1 0x20 DUP3 DUP5 SUB SLT ISZERO PUSH2 0x43D JUMPI PUSH2 0x43C PUSH2 0x3CA JUMP JUMPDEST JUMPDEST PUSH0 PUSH2 0x44A DUP5 DUP3 DUP6 ADD PUSH2 0x414 JUMP JUMPDEST SWAP2 POP POP SWAP3 SWAP2 POP POP JUMP JUMPDEST PUSH0 DUP2 SWAP1 POP SWAP2 SWAP1 POP JUMP JUMPDEST PUSH2 0x465 DUP2 PUSH2 0x453 JUMP JUMPDEST DUP3 MSTORE POP POP JUMP JUMPDEST PUSH0 PUSH1 0x20 DUP3 ADD SWAP1 POP PUSH2 0x47E PUSH0 DUP4 ADD DUP5 PUSH2 0x45C JUMP JUMPDEST SWAP3 SWAP2 POP POP JUMP JUMPDEST PUSH2 0x48D DUP2 PUSH2 0x3ED JUMP JUMPDEST DUP3 MSTORE POP POP JUMP JUMPDEST PUSH0 PUSH1 0x20 DUP3 ADD SWAP1 POP PUSH2 0x4A6 PUSH0 DUP4 ADD DUP5 PUSH2 0x484 JUMP JUMPDEST SWAP3 SWAP2 POP POP JUMP JUMPDEST PUSH0 DUP3 DUP3 MSTORE PUSH1 0x20 DUP3 ADD SWAP1 POP SWAP3 SWAP2 POP POP JUMP JUMPDEST PUSH32 0x4F6E6C79206F776E65722063616E2063616C6C20746869732066756E6374696F PUSH0 DUP3 ADD MSTORE PUSH32 0x6E00000000000000000000000000000000000000000000000000000000000000 PUSH1 0x20 DUP3 ADD MSTORE POP JUMP JUMPDEST PUSH0 PUSH2 0x516 PUSH1 0x21 DUP4 PUSH2 0x4AC JUMP JUMPDEST SWAP2 POP PUSH2 0x521 DUP3 PUSH2 0x4BC JUMP JUMPDEST PUSH1 0x40 DUP3 ADD SWAP1 POP SWAP2 SWAP1 POP JUMP JUMPDEST PUSH0 PUSH1 0x20 DUP3 ADD SWAP1 POP DUP2 DUP2 SUB PUSH0 DUP4 ADD MSTORE PUSH2 0x543 DUP2 PUSH2 0x50A JUMP JUMPDEST SWAP1 POP SWAP2 SWAP1 POP JUMP JUMPDEST PUSH32 0x45544820616D6F756E74206D7573742062652067726561746572207468616E20 PUSH0 DUP3 ADD MSTORE PUSH32 0x3000000000000000000000000000000000000000000000000000000000000000 PUSH1 0x20 DUP3 ADD MSTORE POP JUMP JUMPDEST PUSH0 PUSH2 0x5A4 PUSH1 0x21 DUP4 PUSH2 0x4AC JUMP JUMPDEST SWAP2 POP PUSH2 0x5AF DUP3 PUSH2 0x54A JUMP JUMPDEST PUSH1 0x40 DUP3 ADD SWAP1 POP SWAP2 SWAP1 POP JUMP JUMPDEST PUSH0 PUSH1 0x20 DUP3 ADD SWAP1 POP DUP2 DUP2 SUB PUSH0 DUP4 ADD MSTORE PUSH2 0x5D1 DUP2 PUSH2 0x598 JUMP JUMPDEST SWAP1 POP SWAP2 SWAP1 POP JUMP JUMPDEST PUSH32 0x4E487B7100000000000000000000000000000000000000000000000000000000 PUSH0 MSTORE PUSH1 0x12 PUSH1 0x4 MSTORE PUSH1 0x24 PUSH0 REVERT JUMPDEST PUSH32 0x4E487B7100000000000000000000000000000000000000000000000000000000 PUSH0 MSTORE PUSH1 0x11 PUSH1 0x4 MSTORE PUSH1 0x24 PUSH0 REVERT JUMPDEST PUSH0 PUSH2 0x63C DUP3 PUSH2 0x453 JUMP JUMPDEST SWAP2 POP PUSH2 0x647 DUP4 PUSH2 0x453 JUMP JUMPDEST SWAP3 POP DUP3 PUSH2 0x657 JUMPI PUSH2 0x656 PUSH2 0x5D8 JUMP JUMPDEST JUMPDEST DUP3 DUP3 DIV SWAP1 POP SWAP3 SWAP2 POP POP JUMP JUMPDEST PUSH0 PUSH2 0x66C DUP3 PUSH2 0x453 JUMP JUMPDEST SWAP2 POP PUSH2 0x677 DUP4 PUSH2 0x453 JUMP JUMPDEST SWAP3 POP DUP3 DUP3 ADD SWAP1 POP DUP1 DUP3 GT ISZERO PUSH2 0x68F JUMPI PUSH2 0x68E PUSH2 0x605 JUMP JUMPDEST JUMPDEST SWAP3 SWAP2 POP POP JUMP JUMPDEST PUSH0 PUSH2 0x69F DUP3 PUSH2 0x453 JUMP JUMPDEST SWAP2 POP PUSH32 0xFFFFFFFFFFFFFFFFFFFFFFFFFFFFFFFFFFFFFFFFFFFFFFFFFFFFFFFFFFFFFFFF DUP3 SUB PUSH2 0x6D1 JUMPI PUSH2 0x6D0 PUSH2 0x605 JUMP JUMPDEST JUMPDEST PUSH1 0x1 DUP3 ADD SWAP1 POP SWAP2 SWAP1 POP JUMP JUMPDEST PUSH0 PUSH1 0x60 DUP3 ADD SWAP1 POP PUSH2 0x6EF PUSH0 DUP4 ADD DUP7 PUSH2 0x484 JUMP JUMPDEST PUSH2 0x6FC PUSH1 0x20 DUP4 ADD DUP6 PUSH2 0x45C JUMP JUMPDEST PUSH2 0x709 PUSH1 0x40 DUP4 ADD DUP5 PUSH2 0x45C JUMP JUMPDEST SWAP5 SWAP4 POP POP POP POP JUMP INVALID LOG2 PUSH5 0x6970667358 0x22 SLT KECCAK256 POP 0xF6 RETF DELEGATECALL AND 0xDA DUP16 0xCD SWAP1 0xA6 ADDRESS 0xAD 0xAE PUSH11 0xD7DC10C5EE0BA5A4B1EA3B 0xF ADDRESS 0xBA SWAP4 PUSH23 0xF59664736F6C634300081E003300000000000000000000 "
				},
				"gasEstimates": {
					"creation": {
						"codeDepositCost": "372600",
						"executionCost": "46779",
						"totalCost": "419379"
					},
					"external": {
						"balances(address)": "2803",
						"buyToken()": "infinite",
						"owner()": "2508",
						"tokenPrice()": "2469",
						"totalEthRaised()": "2491",
						"totalTransactions()": "2469",
						"withdraw()": "infinite"
					}
				},
				"methodIdentifiers": {
					"balances(address)": "27e235e3",
					"buyToken()": "a4821719",
					"owner()": "8da5cb5b",
					"tokenPrice()": "7ff9b596",
					"totalEthRaised()": "c9e904be",
					"totalTransactions()": "b9a60038",
					"withdraw()": "3ccfd60b"
				}
			},
			"storageLayout": {
				"storage": [
					{
						"astId": 4,
						"contract": "NahidTokenSale.sol:NahidTokenSale",
						"label": "tokenPrice",
						"offset": 0,
						"slot": "0",
						"type": "t_uint256"
					},
					{
						"astId": 6,
						"contract": "NahidTokenSale.sol:NahidTokenSale",
						"label": "totalEthRaised",
						"offset": 0,
						"slot": "1",
						"type": "t_uint256"
					},
					{
						"astId": 8,
						"contract": "NahidTokenSale.sol:NahidTokenSale",
						"label": "totalTransactions",
						"offset": 0,
						"slot": "2",
						"type": "t_uint256"
					},
					{
						"astId": 10,
						"contract": "NahidTokenSale.sol:NahidTokenSale",
						"label": "owner",
						"offset": 0,
						"slot": "3",
						"type": "t_address"
					},
					{
						"astId": 14,
						"contract": "NahidTokenSale.sol:NahidTokenSale",
						"label": "balances",
						"offset": 0,
						"slot": "4",
						"type": "t_mapping(t_address,t_uint256)"
					}
				],
				"types": {
					"t_address": {
						"encoding": "inplace",
						"label": "address",
						"numberOfBytes": "20"
					},
					"t_mapping(t_address,t_uint256)": {
						"encoding": "mapping",
						"key": "t_address",
						"label": "mapping(address => uint256)",
						"numberOfBytes": "32",
						"value": "t_uint256"
					},
					"t_uint256": {
						"encoding": "inplace",
						"label": "uint256",
						"numberOfBytes": "32"
					}
				}
			},
			"userdoc": {
				"kind": "user",
				"methods": {},
				"version": 1
			}
		}
	}
}